:020000041000EA
:10000000002008205D0100101B0100101D010010E0
:100010001101001011010010110100101101001058
:100020001901001019010010190100101F01001022
:10003000110100101901001021010010230100100E
:100040001101001011010010110100101101001028
:100050001101001011010010110100101101001018
:100060001101001011010010110100101101001008
:1000700011010010110100101101001011010010F8
:1000800011010010110100101101001011010010E8
:1000900011010010110100101101001011010010D8
:1000A00011010010110100101101001011010010C8
:1000B00011010010110100101101001011010010B8
:1000C00011010010110100101101001011010010A8
:1000D0001101001011010010110100101101001098
:1000E0001101001011010010110100101101001088
:1000F0001101001011010010110100101101001078
:100100001101001011010010110100101101001067
:10011000EFF30580103800BE00BE00BE00BE00BE7A
:1001200000BE00BEF2EB8871C0A30010E4A3001073
:10013000A001001090A31AE7D3DEFFFF42012110B7
:10014000FF010000C4B50000793512AB4FF000008C
:100150001E49086006C881F3088810474FF05040D8
:10016000006810B14FF00000F2E70DA40ECC00299A
:1001700002D000F012F8F9E71549164A002000E015
:1001800001C19142FCD11449884714498847144958
:10019000884700BEFDE701C901C29A42FBD3704700
:1001A000E4A300101001002028140020FCB6001069
:1001B0000000082000000820FCB6001000100820F5
:1001C00000100820000000007047000008ED00E06B
:1001D00028140020DC21002015400010550B0010D1
:1001E000D93F0010F8B500BF064B0749C91A89105E
:1001F00048BF0131491003D0044B0BB101481847E7
:10020000704700BF281400202814002000000000C0
:1002100008B5054B1BB105490548AFF30080BDE8A3
:100220000840FFF7E1BF00BF000000006C21002084
:100230007880001070B52DED048B8CB0054609EE6A
:10024000101A08EE902A08EE103A02AC364E0FCE85
:100250000FC40FCE0FC496E8030084E80300002407
:100260005CE0F8EEC95A0CAB03EB840232F8283C90
:100270000F3B1BB207EE903AF8EEE77A67EE887A0A
:1002800075EEA77AF8EEE86A32F8263C103B1BB20E
:1002900007EE103AB8EEC77A27EE087A36EE877A7C
:1002A0000134224A82FB0432E317C3EBA20303EBBF
:1002B0008303A4EB43030CAA02EB830333F8282C3B
:1002C0000F3A12B206EE102AB8EEC66A26EE086A97
:1002D00075EE865A33F8263C103B1BB206EE103AF8
:1002E000B8EEC66A26EE086A76EE866AFCEEE55A35
:1002F000BCEEC77AFCEEE77AFCEEE66A16EE903AC0
:100300009BB2009315EE903A9BB217EE102A92B270
:1003100017EE901A89B2284600F0D5FD092CA0DD11
:100320000CB0BDEC048B70BDD49D00106766666692
:1003300010B584B019491A4807F0ACF8032112200F
:1003400001F09AF80321132001F096F80022012110
:10035000122001F0ADF800220121132001F0A8F8CD
:10036000104803F071FF002400E001347F2C0FDC03
:100370000023009301230DF10F02E1B2084807F0BA
:10038000BFF80028F1DB2146074803F08DFFECE7BA
:10039000064803F059FF04B010BD00BF801A0600E4
:1003A000B40E0020788000108C800010AC8000100B
:1003B00070B582B005460C46104E1149304607F024
:1003C00069F80321284601F057F80321204601F07F
:1003D00053F800220121284601F06AF80022012189
:1003E000204601F065F80023019300963C2340224B
:1003F0008021044800F0A3FF02B070BDB40E0020BD
:10040000801A0600381D002030B583B0134C2046FA
:1004100000F003FD124B0093124B052211462046BB
:1004200000F030FF104B0093104B162205212046A0
:1004300000F028FF0E4D00950E4B2022052120468E
:1004400000F020FF00950C4B34220521204600F0DF
:1004500019FF204600F0F0FC03B030BD381D00202D
:100460009C960010BC800010A4990010CC80001055
:10047000EC9B0010DC800010F08000102DE9F041B2
:1004800088B0284C204600F0C8FC6388009323887D
:1004900000221146204600F0DFFE204600F0CCFC92
:1004A0001C230026202702E0002B31DD2B465D1E99
:1004B0002DB283B31B4CF1B2204600F0EFFC1023A9
:1004C000009370230A220821204600F0D0FE0DF18F
:1004D0000C0832461449404603F03AFD134B009392
:1004E00043460E220C21204600F0CCFE204600F0B0
:1004F000A3FC642001F0FAFEBAB293191BB283F395
:100500000806FE2BD0DD002FCEDD524217B2CDE71C
:10051000002FCBDAF9E7FF21024800F0BFFC08B05A
:10052000BDE8F081381D0020088100109C96001065
:1005300010B582B0154C204600F06FFC144B0093B0
:10054000144B19220A21204600F09CFE204600F0A0
:1005500073FC4FF4FA7001F0C9FE0121204600F04F
:1005600063FC204600F068FC4FF4FA7001F0BEFE18
:100570000021204600F058FC204600F05DFC4FF4BE
:10058000FA7001F0B3FE02B010BD00BF381D0020AC
:100590009C960010188100102DE9F04782B0274C7E
:1005A000B4F800904FEA5909204600F036FC638801
:1005B00000934B4600221146204600F04DFE4FF0BE
:1005C000000A34E007F078FA90FBF9F309FB130412
:1005D00019FA84F4A4B207F06FFADFF86080B8F873
:1005E000023090FBF3F203FB120087B207F064FACB
:1005F00090FBF9F309FB130085B207F05DFAB8F838
:10060000023090FBF3F203FB120086B23A46214619
:10061000404600F04EFC32462946404600F04EFC73
:10062000404600F009FC0AF1010A1FFA8AFABAF101
:10063000630FC7D902B0BDE8F08700BF381D0020A6
:10064000F0B587B0294D284600F0E7FB0024ADF84F
:100650001440ADF816402F88013FBFB2ADF81070BE
:10066000ADF81240ADF80C406E88013EB6B2ADF860
:100670000E60ADF80870ADF80A6000943B46224663
:100680002146284600F01FFC00963B46224639468C
:10069000284600F018FC0096234632463946284684
:1006A00000F011FC0094234632462146284600F013
:1006B0000AFC2B886A88013B013A92B200929BB2F5
:1006C00022462146284600F0FEFB6A882B88013B23
:1006D000013A00949BB292B22146284600F0F3FB07
:1006E000284600F0A9FB07B0F0BD00BF381D002070
:1006F000F8B52DED028B294B1F887F08143FBFB240
:100700005E8876080F3EB6B2DFED258A9FED258A1A
:10071000052504E0F1EE688A013D38EE288AD5B35C
:100720001E4C204600F079FBF2EE047A68EE277A40
:10073000FDEEE77A17EE901AF2EE0E7A68EE277A5F
:10074000FDEEE77A17EE902A16FA82F217FA81F197
:1007500018EE103A92B289B22046FFF76BFD2046A0
:1007600000F06AFBF0EE087AB4EEE78AF1EE10FAD8
:1007700004DDF5EEC08AF1EE10FACBDCDFED0A7A8B
:10078000B4EEE78AF1EE10FAC7D5F5EEC08AF1EEC5
:1007900010FAC2D5BEE7BDEC028BF8BD381D0020B3
:1007A000CDCCCC3D9A99193FCDCC4C3F30B583B0E0
:1007B000314800F032FB0A250DE0304B2A46214635
:1007C0002D48FFF737FD1934A4B22B4B1B88A342E9
:1007D000F3D81035ADB2284B5B88AB4206D915F083
:1007E000100F01D01324F0E70A24EEE7224800F0AE
:1007F00023FB002408E0204D0121284600F0ECFDF9
:10080000284600F019FB01341B4B5B88A342F2DC45
:10081000194DAB88013B00240094DBB22246012134
:10082000284600F0ACFD40F2DC5001F05FFD2846A8
:1008300000F080FD08E0104D0021284600F0CCFDBE
:10084000284600F0F9FA01340B4B5B88A342F2DC36
:10085000094CA388013B00210091DBB20A462046E7
:1008600000F08DFD40F2DC5001F040FD204600F02C
:1008700061FD03B030BD00BF381D00206666E63E56
:100880002DE9F04383B01C4B1F887F085E887608F3
:1008900000254FF00A094B4609F1FF3943B34FF0E9
:1008A00000081DE0C4F34F02B91A15FA81F189B2AC
:1008B0006439B21A0094234612B209B20E4800F00D
:1008C00075FB0F34A4B20C4B1B88B4EB430FE9DB70
:1008D000094800F0B1FA013508F101081FFA88F85B
:1008E000B8F10E0FD7D8044800F097FA4446EAE76B
:1008F00003B0BDE8F08300BF381D00202DE9F04FA4
:1009000085B0314BB3F800804FEA58085F887E0805
:1009100037464FF0050B48E0ABF10A022A4E00952E
:10092000234612B26FF01301304600F07FFB31888E
:1009300014310BF10A020095234612B209B2304677
:1009400000F074FB1434A4B20535ADB20AF1140AF8
:100950001FFA8AFA1C4B1B88BAEB430FDCDB039EA1
:100960004C4607E023463A464146174800F06CFCE7
:100970001434A4B2144B1B88A342F3D2124800F0E3
:100980005BFA09F101091FFA89F9B9F1130F09D8C6
:100990000D4800F042FA4FEA99054C464FF0000A24
:1009A0000396D7E733465E469B465B460BF1FF3B1B
:1009B0001FFA8BFB2BB14FF000095B46B3461E4676
:1009C000E3E705B0BDE8F08F381D00202DE9F04FBA
:1009D00083B0344BB3F800904FEA9909B3F8028022
:1009E0004FEA58084FF0050B5B460BF1FF3B1FFA2F
:1009F0008BFB002B53D04FF0000A45E0711D7A1D90
:100A0000A4F10A0307EE903AF8EEE77AB7EE0C7A13
:100A100067EE877AFCEEE77AA5F10A039BB20093B2
:100A200017EE903A9BB212B209B21E4800F01FFCBA
:100A3000143D2CB2002C20DD04EBD472C2F34F0223
:100A4000A9EB02018EB2A8EB020297B207EE904A20
:100A5000F8EEE77AB7EE0C7A67EE877AA5B2FCEE8D
:100A6000E77A009517EE903A9BB212B209B20D48A0
:100A700000F0F2FB0A2CDBDDC0E70A4800F0DCF9ED
:100A80000AF1010A1FFA8AFABAF1130FACD8054C21
:100A9000204600F0C2F96488544424B2CAE703B087
:100AA000BDE8F08F381D002030B583B0164C2046CD
:100AB00000F0B3F9154D0095154B1922052120467C
:100AC00000F0E0FB204600F0B7F94FF47A7001F037
:100AD0000DFC204600F097F94FF47A7001F006FC07
:100AE000204600F095F900950A4B2D22052120465D
:100AF00000F0C8FB204600F09FF94FF47A7001F037
:100B0000F5FB03B030BD00BF381D00209C960010DF
:100B1000288100103881001038B500240FE00B4DFB
:100B2000284600F07AF96242094B92B20021284629
:100B300000F0CEFB284600F07FF90134A4B2034B4D
:100B40005B88C3F1C4039C42E9DB38BD381D00203B
:100B5000508A001038B5192000F0C6FC19234FF058
:100B6000010242EC443000240FE019254FF001034C
:100B700043EC4050C82001F0B9FB4FF0000343ECB8
:100B80004050C82001F0B2FB0134052CEDDD03F02C
:100B900057FB1F4803F058FB40F6B83001F0A6FBA6
:100BA000FFF7C6FB13211220FFF702FCFFF72CFC16
:100BB0004FF4FA6001F09AFBFFF760FC40F2EE2080
:100BC00001F094FBFFF7B4FC40F2EE2001F08EFB45
:100BD000FFF7E2FCFFF78CFDFFF7E8FD40F2EE20A7
:100BE00001F084FBFFF798FF40F2EE2001F07EFB5E
:100BF000FFF726FD40F2EE2001F078FBFFF740FE04
:100C0000FFF77CFEFFF7E2FEFFF74EFFCEE700BFE7
:100C100040810010B0F800C08C451FD910B5B0F865
:100C200002E096450BD95BB10069D3080CFB0311B8
:100C3000435C02F007040122A2401343435410BD59
:100C40000469D3080CFB0311635C02F00702012066
:100C500000FA02F223EA02036354F0E770472DE939
:100C6000F04707469DF8248021EAE1718DB222EA1F
:100C7000E2721FFA82F92B449AB2BDF820304B443D
:100C80009BB2B0F800A0924528BF924646889E428B
:100C900028BF1E460BE04346224629463846FFF74A
:100CA000B9FF0134A4B2B442F5D30135ADB2554514
:100CB00001D24C46F7E7BDE8F0872DE9F84F8246B0
:100CC000894690469B460A9F002612E004EB0802E4
:100CD00006EB090105F0010392B289B25046FFF715
:100CE00099FF6D080134E4B27B79A342EED8013656
:100CF000F6B23979B14209D93A689BF80030B8792F
:100D00001B1A01FB0363D55C0024EDE7BDE8F88FF7
:100D100000B585B000238DF80C308DF80D100093D0
:100D2000022303AA8179806806F0DEFB05B05DF836
:100D300004FB30B589B00546AE238DF80430A823F6
:100D40008DF8053043885A1E8DF80620D3228DF881
:100D5000072000228DF8082040228DF80920A122CA
:100D60008DF80A20C8228DF80B20DA228DF80C208D
:100D70000288B2EB430F33DD02238DF80D3081235F
:100D80008DF80E30FF238DF80F30A4238DF810302E
:100D9000A6238DF81130D5238DF8123080238DF8DD
:100DA00013308D238DF814302B7BDBB110228DF89E
:100DB0001520D9228DF81620B3B122238DF81730D3
:100DC000DB238DF8183030238DF8193020238DF86F
:100DD0001A3000248DF81B40AF238DF81C300EE034
:100DE0001223CAE71422E2E7F123E7E704F1200324
:100DF0006B4413F81C1C2846FFF78AFF0134182C9B
:100E0000F4D909B030BD08B5AE21FFF781FF08BDA8
:100E100008B5AF21FFF77CFF08BD08B54269002186
:100E2000006906F069FE08BD08B501F0010141F056
:100E3000A601FFF76DFF08BD30B585B0054621233B
:100E40008DF8083000248DF809400388013B8DF8A7
:100E50000A3022238DF80B308DF80C408388013B3B
:100E60008DF80D3008E004F110036B4413F8081CF2
:100E70002846FFF74DFF0134052CF4D92B69402299
:100E800003F8012C2A696B69002100910133013AB2
:100E9000A979A86806F028FB05B030BD38B504462E
:100EA0000D468121FFF734FF29462046FFF730FF2A
:100EB00038BD08B50123FFF7ADFE08BD08B5002316
:100EC000FFF7A8FE08BD2DE9F04F83B080460D4620
:100ED00014469946BDF830B05E1A36B2ABEB020745
:100EE0003FB2002E17DB01230093002F19DB4FF0D8
:100EF000010A0123224629464046FFF78BFEBE42E7
:100F00002FDD7F00BFB2B6B2A7EB060B0FFA8BFB4B
:100F10000196009E14E0CE1A36B24FF0FF330093D4
:100F2000E3E7A4EB0B073FB24FF0FF3AE1E7BB4426
:100F30000FFA8BFB0123224629464046FFF76AFE43
:100F40004D4530D03544ADB2BBF1000FEFDB54441A
:100F5000A4B2019B5B009BB2ABEB03030FFA83FBD4
:100F6000E5E7BFB27600B6B2A7EB06090FFA89F93A
:100F700011E0009B1D44ADB27B009BB24B440FFAC5
:100F800083F9A9EB06090FFA89F9012322462946BC
:100F90004046FFF73FFE5C4505D05444A4B2B9F18A
:100FA000000FEEDCE5E703B0BDE8F08F2DE9F04778
:100FB0000646884617469946BDF820A00D4613E020
:100FC000ADB2BCB20123224629463046FFF722FECD
:100FD00004EB0A0292B2013A012392B2294630464A
:100FE000FFF718FE01352DB208FA89F39D42E7DBC1
:100FF0003D4614E01FFA88F4ADB201232A4621468B
:101000003046FFF707FE04EB090189B201390123DD
:101010002A4689B23046FFF7FDFD01352DB207FAA9
:101020008AF39D42E6DBBDE8F08700002DE9F04F32
:101030002DED088B83B0009115460192BDF850202C
:10104000002B00F0F980074608461946002A00F0F8
:10105000F3801BB2D84200F1EF80C31A3888834274
:1010600080F2EA8014B2E54200F1E6802B1B78881A
:10107000834280F2E18007EE901AF8EE679A07EE5D
:10108000902AB8EE678A69EEA99A28EE08BA39EE76
:10109000A9AA7BEE0BAA07EE904AF8EEE78A68EE63
:1010A0008A8A28EE298A3BEE488AF5EE007A69EEB4
:1010B000A77A38EE278A9FED639A00250FE0013565
:1010C0002DB209F1FF390FFA89F439EE2A9A78EE38
:1010D000CA8A79EE687A77EE8B7A38EE278AB4EE90
:1010E000E89AF1EE10FA3AD8BDF80060ADB206EB1E
:1010F000050A1FFA8AFABDF804801FFA84F908EB82
:10110000090B1FFA8BFB01235A4651463846FFF75D
:1011100081FD761BB6B201235A4631463846FFF7A9
:1011200079FDA8EB09081FFA88F8012342465146C9
:101130003846FFF76FFD0123424631463846FFF738
:1011400069FDB5EEC08AF1EE10FAB8D501352DB2C1
:1011500039EE2A9A7BEE097A38EE278ABFE707EE46
:10116000905AB8EEE78AF6EE007A38EE278A68EEF3
:101170000B7A28EE278A07EE904AF8EEE77AB7EE68
:10118000007A77EEC77A27EEA97A67EE877A38EE8B
:10119000278A29EE8BBA38EE4B8A0FE0013C24B245
:1011A00009F101090FFA89F539EE2A9A78EECA8A0F
:1011B00079EE687A77EEA97A38EE278A002C3BDB45
:1011C000BDF800601FFA85F906EB090A1FFA8AFAD2
:1011D000BDF80480A4B208EB040B1FFA8BFB0123BB
:1011E0005A4651463846FFF715FDA6EB0906B6B23A
:1011F00001235A4631463846FFF70CFDA8EB040898
:101200001FFA88F80123424651463846FFF702FD8F
:101210000123424631463846FFF7FCFCB5EEC08A52
:10122000F1EE10FABADD013C24B278EECA8A79EE0A
:10123000E87A38EE278AC1E703B0BDEC088BBDE839
:10124000F08F00BF0000000000B583B00093FFF7EF
:10125000EDFE03B05DF804FB10B582B001240194EB
:10126000BDF810400094FFF7FAFC02B010BD10B5B5
:1012700082B000240194BDF810400094FFF7EFFC09
:1012800002B010BD2DE9F04383B081460E46904672
:101290001C460A9DAF79EB791F44FFB204E02B791D
:1012A0001E4414F8013F83B12378AA799A42F6D8F4
:1012B0009F42F4D9009523461FFA88F2B1B24846FE
:1012C000FFF7FBFC2B791E44EBE703B0BDE8F0838E
:1012D0002DE9F8438146884617461E46002522E040
:1012E0004FEAEC0CE24302F00702B36813F80C304B
:1012F0001341EA1904EB080103F0010392B289B229
:101300004846FFF787FC0134A4B2B6F800C0A445F4
:1013100007D90CFB054CBCF1000FE1DA0CF1070C0E
:10132000DEE70135ADB27388AB4201D90024ECE7AA
:10133000BDE8F88308B52E21FFF7EAFC08BD10B51B
:10134000044601804280D20882808371029B8360C0
:101350009DF80C30037302FB01F14161481C01F060
:10136000FFFC206148B1013020612046FFF7E1FC1D
:101370002046FFF7DFFF012010BD0020FCE7F8B595
:1013800004460F4616461D46FFF7D4FF17B3262125
:101390002046FFF7BDFC00212046FFF7B9FC06F010
:1013A00007012046FFF7B4FC00212046FFF7B0FC00
:1013B00005F007012046FFF7ABFC00212046FFF7B0
:1013C000A7FCFF212046FFF7A3FC2F212046FFF7B3
:1013D0009FFCF8BD2721DBE72DE9F0410C46B0F872
:1013E00000E04188C9084FF0000C1AE012FB0EF330
:1013F0001CFA83F39BB20769FE5C45EA4605FD547F
:10140000013292B2F5098A42F0D3026912F80C3027
:1014100003F0FE032B4302F80C300CF1010C1FFA11
:101420008CFCF44525D21CB94D1E4FF0000810E08D
:1014300000221546E7E715FB0EF31CFA83F39BB277
:101440000669F25CD70148EA5202F254013D07F006
:101450008008002DEFDA4B1E13FB0EF31CFA83F30A
:101460009BB20569EA5C02F07F0242EA0802EA5494
:10147000D3E7BDE8F08100000C4B03EB800253F88A
:10148000203083F0400303F0C00302F5805CCCF809
:101490000030C00000F1804000F52030416002F5CE
:1014A00040524FF480731360704700BF04800340C4
:1014B00010B40C4C04EB800C79B108237AB10422EF
:1014C000134354F82020534003F00C030CF5805CC8
:1014D000CCF800305DF8044B70470023EEE70022A3
:1014E000EEE700BF0480034008B54FF0000242EC75
:1014F000440042EC40000521FFF7BEFF08BD00009C
:101500000FB400B583B0049C074802F09DFE3CB1C7
:1015100005A90191204602F0A7FE044802F094FEBE
:10152000012002F03DFD00BF5081001060810010DD
:10153000EFF3108072B6064BD3E8CF1F01220029CB
:10154000FAD1C3E8412F0029F6D1BFF35F8F70476E
:10155000CF1800200023034AC2E88F3F80F3108891
:10156000704700BFCF18002070B505460C461646E0
:10157000FFF7DEFFE208A95C04F0070C012303FA81
:101580000CF3194205D1DBB20B43AB54FFF7E2FF7A
:1015900070BD21463046FFF7B3FFF8B506460D464D
:1015A00014461F46FFF7C4FF00E00134BC420ED8CA
:1015B0004FEAD40C16F80C1004F0070301229A40ED
:1015C0001142F2D1D2B20A4306F80C2001E04FF0EA
:1015D000FF34FFF7BFFF002C01DB2046F8BD002DD4
:1015E000FBD00698FFF78CFF054A1078431CDBB24E
:1015F0001370172B02D9134610221A70704700BFC0
:10160000180E002000B583B00146054B00931F2340
:1016100018220448FFF7C1FF03B05DF804FB00BFC8
:1016200064810010E01C00204FF0E022936843F03A
:101630000053936070470000002305E0044A1A44F9
:101640000021C2E88F1F01331F2BF7D9704700BF5D
:10165000C4180020064B9B68103043F82010BFF3DD
:101660005F8F00230349C1E88F3F82F310887047E2
:1016700000ED00E0CD1800200048704700E400E0D5
:1016800008B5FFF7F9FF002304E04FF0803240F87F
:10169000042B01330C2BF8D962B608BD08B50388BA
:1016A000DA0A1C2A06D15B050BD45B15023300EB6A
:1016B000430008BD064B074A4FF48E71064802F0FE
:1016C0008FFC03F5FF1303F5FF531F33EDE700BF56
:1016D00080810010249E00109881001008B5091A1E
:1016E00001F2FC7240F6FE739A4208D8081F11F00E
:1016F000010F04D1C0F34A0040F4604008BD034B21
:10170000034A4FF48771034802F06AFCE08100103D
:10171000189E0010988100104209064B53F82230A1
:1017200000F01F000122824003EA0200003818BFC7
:101730000120704700E100E03AB1064B00F1600281
:1017400043F8221043F8201070472030014B43F833
:101750002010704700E100E008B50A4600F01F03C2
:10176000012199404009FFF7E7FF08BD00F01F0283
:101770004009012393404030014A42F8203070472D
:1017800000E100E0024B9B68103053F820007047E6
:1017900000ED00E008B5FFF7F5FF034BC01A2F2856
:1017A0008CBF0020012008BD1C0E002070B505462E
:1017B0000C46EFF3108672B60F4BD3E8CF1F012211
:1017C0000029FAD1C3E8412F0029F6D1BFF35F8F7A
:1017D000FFF7D8FF094B984201D0A04205D132460D
:1017E00021462846FFF736FF70BD054B054AED211F
:1017F000054802F0F5FB00BFCD18002011010010D4
:10180000108200104C9E0010988100102DE9F04FBE
:1018100087B000911546EFF3108A72B67C4BD3E87F
:10182000CF1F01220029FAD1C3E8412F0029F6D1A8
:10183000BFF35F8F774B93F90040002C44DB804669
:1018400004EB4407744B03EB870797F90610714AC2
:101850001170724A926800F1100152F82190A9EBC0
:1018600003022F2A3ED96E4B994534D14FF42143C0
:10187000ADF80C304FEA440904EB4400664E06EB29
:10188000800068490230FFF729FFADF80E004BF6E3
:101890000153ADF81030FF238DF812308DF813503E
:1018A000009B0593A14406EB890306AA12E90700F1
:1018B00083E8070047F00109524649464046FFF7D2
:1018C000C9FE07B0BDE8F08F574B584A4FF4BE71C0
:1018D000574802F085FB574B544A40F28311544855
:1018E00002F07EFB29F0010BABEB0303524AA2FB93
:1018F0000312D20802EB4202B3EB820F0FD15B4618
:101900000026DA79AA4212D993F90620002A0DDBC3
:1019100002EB42021E46404B03EB8203F1E7474BCA
:10192000424A4FF4CA71424802F05AFB1E46A6B31F
:1019300044F60103ADF80C304FF48F43ADF80E3090
:1019400096F906B0BBF1000F1ADA4BF60150ADF86C
:1019500010008DF812B08DF81350009B0593394696
:10196000301DFFF7BBFEB080B47104EB44042A4B7A
:1019700003EB840306AA12E9070083E807009BE74C
:10198000301DFFF78BFE014604EB4402224B03EBB4
:101990008203181DFFF7A2FED9E74FF42143ADF8EB
:1019A0000C306300019304EB4406DFF86C9009EB04
:1019B00086061C49B01CFFF791FEADF80E00594693
:1019C000301DFFF78BFEADF810004AF6AA235A46E9
:1019D0004946521A524153431B0D8DF812308DF86F
:1019E0001350009A0592019B234409EB830906AB2F
:1019F00013E9070089E8070044F60103ABF800305B
:101A00004FF48F43ABF8023047F0010954E700BFB1
:101A1000CD180020D42100201C0E002000ED00E095
:101A2000110100104C0E002048820010349E00105E
:101A30009881001070820010ABAAAAAA98820010A8
:101A400038B540F00104324BE31A2F2B31D8EFF3B5
:101A50000581C9B2002933D0EFF3108E72B62D4B39
:101A6000D3E8CF5F0122002DFAD1C3E8452F002D26
:101A7000F6D1BFF35F8F4AF6AA230246244D521BCC
:101A8000524153431B0D4FFA83FC234B9B6853F881
:101A90002130A3421BD00023032B32D803EB430198
:101AA0001B4A02EB810292F90620624520D00133E5
:101AB000F2E71A4B1A4A40F27F211A4802F090FAD4
:101AC000194B174A40F28221164802F089FA124B4C
:101AD0009B68164A43F82120154B1A78827183F8C7
:101AE00000C000230B4AC2E88F3F8EF3108838BD38
:101AF000074A02EB8101FF248C714BF601538B8066
:101B0000EAE70C4B064A40F29321064802F068FAD5
:101B10001C0E0020CD18002000ED00E01C830010FA
:101B2000FC9D0010988100104483001011010010EA
:101B3000D42100205083001000B583B00146074B2C
:101B40000093052300220648FFF727FD002801DB4C
:101B5000C0F1330003B05DF804FB00BF58830010F0
:101B6000D8210020014B0B4403607047C4180020AB
:101B700010B50446FFF738FD01462046FFF7F2FF97
:101B8000FF232371BFF35F8F10BD10B50446FFF72D
:101B90002BFD01462046FFF7E5FFFF2323710023BD
:101BA0006371BFF35F8F10BD10B50D4C09E00D4B95
:101BB0000D4A1A210D4802F013FA2046FFF7D8FF0C
:101BC00008340B4B9C4209D22368002BF5D0012B23
:101BD000EDD12046FFF7D9FF0834F2E710BD00BF72
:101BE00020140020748300108C9E00109483001039
:101BF00028140020024B0B440360BFF35F8F704733
:101C0000C418002010B504460120FFF7FBFC014674
:101C10002046FFF7EFFF10BD0246EFF30583DBB26E
:101C2000103B990804D0034803F003031360704786
:101C30000148F9E700800B4000000B4010B4846AB3
:101C4000A2EB040C0B1D50F823301B1B9C4504D346
:101C5000046A01238B401C4202D1043140F8212048
:101C60005DF8044B704741EA004070470D4B1A681D
:101C7000EFF3108172B6D2E8CFCF0120BCF1000F94
:101C8000F9D1C2E84C0FBCF1000FF4D1BFF35F8F64
:101C90001A680023C2E88F3F81F3108840BF0020FC
:101CA00000217047B42100202DE9F04F85B003A832
:101CB000FFF7B2FF954B984214BF0023012303990D
:101CC00001EB8303924A52F823402378994206D1CC
:101CD000054601228A4000F541535A602CE18D4BA4
:101CE0008D4A92218D4802F07BF9D4F8149006EBCE
:101CF00046074FEAC70A09EBC707D7F808B0D7F875
:101D00000C80284600F0B4FBB0EB0B0061EB08033D
:101D1000002BC0F21A81B8F1000F64DB3B691A4650
:101D200000937F4B9A4230D0798889B2B4F9080089
:101D3000FFF799FF7969009B9847009001910099FE
:101D4000019A51EA02034ED01346002A29DABBEB6E
:101D5000010268EB0308BA60C7F80C8039F90A7011
:101D6000002FC0F2F280D4F814E007EB47030EEB2B
:101D7000C3039968DB68511A68EB0303002BC0F2B8
:101D8000E480A4462CF8087F17E07A691369009272
:101D90001046984738B3009A13680093536801932C
:101DA000CDE7284600F064FB009B1A18019B43EB2B
:101DB0000108D0E79C463EF90B70002F0EDBBCF902
:101DC000003003EB43034FEAC30B0EEBC3039868E9
:101DD000D968101A68EB01010029EBDA29F80A70BA
:101DE000ACF80060B1E039F90A3023812369EFF3E0
:101DF000108272B6D3E8CF0F01210028FAD1C3E8D0
:101E0000401F0028F6D1BFF35F8FB4F9023029F8E4
:101E10000A30668021690023C1E88F3F82F3108871
:101E200093E02369EFF3108272B6D3E8CF0F01215C
:101E30000028FAD1C3E8401F0028F6D1BFF35F8F16
:101E4000B4F804800FFA88F84FF6FF73A380216975
:101E50000023C1E88F3F82F310881AE01F4630F953
:101E60000A60002E0FDBB7F9003003EB43034FEAA3
:101E7000C30A00EBC3039968DA68BCEB01016EEB9F
:101E80000202002AEADAA7F8008030F9098020F877
:101E90000960B8F1000F5DDB606908EB48034FEAA9
:101EA000C30900EBC303D3F808C0D3F80CE004F176
:101EB0000807B4F90860D4E70023A37104F1080C03
:101EC000B4F9083010E04FF0FF384FF0FF39C0E9A7
:101ED0000289B4F90800984205D0ACF80020B4F9A2
:101EE0000800C85323811346B3F1FF3F35D0616921
:101EF00003EB4302D70001EBC20031F932204688E0
:101F000016F4004FDFD18446EDE700BF00800B40A0
:101F10008C21002028840010B89E001054840010EA
:101F2000A91C0010284600F0A3FA3F1A66EB010630
:101F3000012F76F1000628DA039A01239340EB6320
:101F4000B4F90860002EBFF6D0AEA38813F4004F9A
:101F50003FF467AFA379002BAED1B4F90830002B62
:101F600013DB626903EB430302EBC3039F68DE6884
:101F7000B6F1FF3F08BFB7F1FF3FD3D03A46334633
:101F800003992846FFF75AFECCE740BF05B0BDE8ED
:101F9000F08F00BFF8B504460D4611460A4B984233
:101FA00010D000262E44012707FA05F52562304699
:101FB000FFF7FCFB39463046FFF7CEFB04F5015432
:101FC0002560F8BD0426EDE700800B40F8B5044617
:101FD0000E4617461D46C160FFF706FB164B03442D
:101FE00023612770ABB263814FF050421278627068
:101FF0004FF6FF722281A280013B63804FF0000CFC
:1020000008E00CF1FF300CEB4C0E636923F83E0046
:102010000CF1010CAC45F4D3084B9E4214BF0023D5
:10202000012307EB8303064A42F82340054A394659
:102030003046FFF7AFFFF8BDC418002000800B400A
:102040008C210020A91C001008B5054B1B690BB1A1
:10205000034808BD034B044A6521044801F0C0FF52
:10206000640E002094840010A09E00105484001080
:10207000F8B504469E460069EFF3108172B6D0E8C9
:10208000CF6F0125002EFAD1C0E8465F002EF6D1B1
:10209000BFF35F8FB4F90250666905EB4500C700D6
:1020A00006EBC000002D03DB36F907C0A4F802C020
:1020B0004FF0000C2369C3E88FCF81F3108865458A
:1020C00033DB06990161079941618260C0F80CE039
:1020D000418889B20131C1F30E0101B9012141806A
:1020E0002846FFF7C0FD2369EFF3108272B6D3E8EC
:1020F000CFCF0121BCF1000FF9D1C3E84C1FBCF1D7
:10210000000FF4D1BFF35F8FA388F353A58021693B
:102110000023C1E88F3F82F31088E3682178012211
:102120008A4003F501535A60F8BD4FF0FF30FBE7DA
:1021300070B582B0064615461C469DF8203033B96E
:1021400000F0ACF9854264EB010100290ADB079B32
:102150000193069B00932A4623463046FFF788FFEB
:1021600002B070BD0020FBE7F0B585B005460C4617
:1021700016461F46FFF768FF9DF828300293019727
:1021800000962A462346FFF7D3FF05B0F0BD03466D
:102190004089B0EB214F31DD10B50A14586902EBCC
:1021A000420200EBC2001A69EFF3108C72B6D2E85B
:1021B000CF4F5FF0010E002CF9D1C2E844EF002CA4
:1021C000F5D1BFF35F8F428892B289B28A420FD0B5
:1021D000002019690022C1E88F2F8CF3108830B1DC
:1021E000DA681B780121994002F50153596010BD4E
:1021F00042F40042428001209871EAE700207047D3
:1022000010B50446FFF720FF2146FFF7C0FF10BDC1
:1022100040787047F0B583B0EFF30583DBB2CBB9FC
:1022200004460D46861F41F1FF37B04271EB0703AC
:1022300001D20026374600F031F9301A67EB01036E
:10224000012873F1000308DA2046294600F02EF930
:1022500003B0F0BD1848FFF753F900230093174A65
:1022600030463946FFF780FF002819DAECE7144BB7
:102270001A68EFF3108172B6D2E8CFCF0120BCF11B
:10228000000FF9D1C2E84C0FBCF1000FF4D1BFF33D
:102290005F8F1A680023C2E88F3F81F3108820BF48
:1022A000084B5B6A9F42E2D8064A926AB242CBD29E
:1022B0009F42C9D1DBE700BFB88400106D1C00103D
:1022C000B421002000000B4038B504460D4600F054
:1022D000E5F8201845EB0101002902DBFFF79AFF22
:1022E00038BD4FF0FF306FF00041F7E708B5C30E7F
:1022F0004101091A63F100039B0043EA91738900CD
:10230000091843F10003DB00C80043EA5171FFF7ED
:10231000DBFF08BDF0B583B005460C46EFF305833F
:10232000DBB293B1384B5B6A8B4209D3364A926A6F
:10233000824208D28B4201D0012002E0002000E05E
:10234000002003B0F0BD0120FBE7FFF77DFEC7686A
:102350000678384600F08CF82A1A64EB010104363E
:1023600057F826301B1A9A4271F1000112DB20BF88
:10237000254B5B6A9C4209D8234A926AAA4207D23B
:102380009C4201D00120DCE70020DAE70020D8E7FA
:102390000120D6E7002300931C4A28462146FFF778
:1023A000E3FE002818DD184B5B6A9C4205D8164AEC
:1023B000926AAA4202D29C4200D120BFFFF720FFBE
:1023C000114B5B6A9C421BD80F4A926AAA4219D2EF
:1023D0009C4213D00120B4E70B4B5B6A9C4209D8A6
:1023E000094A926AAA4207D29C4201D00120A8E77A
:1023F0000020A6E70020A4E70120A2E70020A0E734
:1024000000209EE701209CE700000B406D1C00109F
:102410000048704700000B4010B50A4B1B6923B100
:102420000A210948FFF79EFB10BDFFF7F1FF0446A4
:10243000032100F00BF81023032221460148FFF787
:10244000C5FDEDE7640E0020B421002010B5054A5B
:10245000054C064BA04214BF1846581CFFF784F8E1
:1024600010BD00BF0885001000800B40E41C002058
:102470000246436A906A1946536A9942FAD17047F4
:10248000416A00E0416A9942FCD300E0416A994206
:1024900002D1816A9142F9D37047000008B5024821
:1024A000FFF7E6FF08BD00BF00000B4008B502467D
:1024B0000B460248FFF7E4FF08BD00BF00000B40D9
:1024C00070B51646049D00EB400C4FEA8C0C0CF1E5
:1024D000804C0CF5803CDCF80420AA4201D2CCF8F8
:1024E0000450A0F1040E5FFA8EFEBEF1010F28D950
:1024F0000CF540524FF4006414601E4A52F820203C
:1025000042B11C4C6469B4FBF2F4013404EB4404A2
:10251000033CFDD2DCF8002082EA461202F0E00221
:102520000CF580542260BEF1010F16D90CF5005253
:102530004FF400611160CCF804500E4A42F820308C
:1025400070BD0129D4D10CF5405203241460DCF88D
:10255000082012F0010FFAD0DCE7DCF800204A4036
:1025600002F003022260DCF8084001228A40144293
:10257000F9D0DBE7E81C002010B582B04FF48034BE
:102580000094FFF79DFF02B010BD0000014B53F80F
:1025900020007047E81C002070B5049C344DB5FB4A
:1025A000F1FC344D1544344EB54237D8B2FBFCF53E
:1025B000A5F1100EBEF5987F36D803F1FF3EBEF1AF
:1025C000060F37D804F1FF3EBEF1060F32D8BCEB40
:1025D000121F35D8240344EA03440368002B35DB7B
:1025E000264B984242D00E2301229A40244B1A6077
:1025F00003F580531A60234B9B6832EA0303FAD138
:102600000160856000F540520432212313600368A5
:10261000002BFCDAC4600823136070BD1A4B1B4A00
:1026200011211B4801F0DCFC1A4B184A19211848EB
:1026300001F0D6FC184B154A1C21154801F0D0FCBE
:10264000164B124A2321124801F0CAFC036803F01A
:102650003F038B42C4D18368C3F30B03AB42BFD1AA
:10266000C36803F4EE23A342BAD1D6E70F23BBE736
:10267000001BB70080E84BD380F8A93200800540EA
:1026800000200240000002402C850010D09E001067
:102690007C850010C4850010E08500102C86001099
:1026A000024B1A68024B5A60704700BF6421002039
:1026B00000800D4008B5164B4FF080421A60A3F51C
:1026C0004123144A9A6051B103F540234FF0E06270
:1026D0001A6048B9104B4FF000421A6008BD0C4B0D
:1026E0004FF0E0621A60F4E74FF47A7303FB00F0F6
:1026F0000A4B1860B0F1807F02D36FF07F421A60FE
:10270000FFF7CEFF044B4FF080421A60E6E700BFB0
:1027100000B00D40F3FFFF0100A00D406421002038
:1027200010B50C4B4FF080441C6070B140F00103B9
:1027300009480A4CC4610A4C5C40046241628362ED
:1027400000211046FFF7B6FF10BD034B0021D961F1
:10275000F6E700BF00B00D4000800D40D3C007B0C9
:102760002D3FF84F054A00EB400302EB830359600D
:1027700000EB4000800001231350704700801040A0
:102780002DE9F04105460E46174698460023DB8AA0
:10279000002242E800F212F4800F0BD1102144F223
:1027A00052209847044643463A4631462846A047B9
:1027B000BDE8F081042144F2522098470446F2E734
:1027C00008B50023DB8A002242E800F212F4800FF1
:1027D00002D11021984708BD04219847FBE708B5AE
:1027E000031E04DB41F020003AB141F030010A46FB
:1027F0000A214FF48170FFF7C3FF0146F7E700009D
:10280000034BD3F82838002BFAD0BFF35F8F704703
:1028100000000E40002207E0054B13449B00BFF36D
:102820005F8F002119600132072AF5D9704700BF78
:102830000382031008B5FFF7EDFF08BD074B4FF407
:102840002A621A604FF48D72DA6003F50053044A6D
:102850001A60024B5B68002BFBDA70470080044073
:1028600000B0FA0010B5044602E054F8043B984763
:10287000014B9C42F9D310BD7080001070470000DE
:1028800008B50248FFF7EEFF08BD00BF308000101A
:10289000064B074A1A6003F58053064A1A60064B36
:1028A0009A68044B9343FAD1704700BF002002405E
:1028B0007F3BEFEFF6FFF30300000240054BDB6CBC
:1028C000B3F5004F00D07047034B4FF48022DA6419
:1028D000F9E700BF00001150002011504FF0E02236
:1028E000D2F8881D034B0B43C2F8883D10EE30042C
:1028F000704700BF03033000054B6FF060421A6061
:10290000044B9B68DB4333F06043F9D1704700BF51
:10291000003002400000024008B545F25320FFF7A6
:102920004FFF03460420984708BD08B545F25320E1
:10293000FFF746FF03460120984708BD08B5FEF79C
:102940007BFE08BD10B50C490C4A521A9210144671
:10295000442A28BF44229200094805F045F904E0C2
:10296000084A074B43F824200134432CF8D9044A81
:10297000054B9A6010BD00BF000000101001001050
:10298000000000201101001000ED00E038B5042027
:10299000FFF7FCFD064BA3FB0035AD0C002404E063
:1029A0002946E0B2FFF7DEFE0134052CF8DD38BD24
:1029B00083DE1B4330B583B0264B0022C3F884204E
:1029C000FFF73CFF244B0122DA63224B5B6C012BA7
:1029D000FBD1214B03221A631E4B9B6B012BFBD1B6
:1029E0000224009405231D4A01211D48FFF7D4FD50
:1029F000052500952B461B4A01211B48FFF7CCFDFE
:102A00001A4B002221460420FFF7B6FD184C23463E
:102A1000002201212846FFF7AFFD164D2B4600226C
:102A200011460820FFF7A8FD2B4600221146092079
:102A3000FFF7A2FD2346002211460620FFF79CFD6A
:102A40002346002211460720FFF796FDFFF79EFF61
:102A500003B030BD0000014000300140002F685934
:102A600000000540008C864700800540001BB70031
:102A700080D1F008006CDC0286B003B451FC08047D
:102A8000CDE9020151FC0904CDE9040151EC0A042D
:102A9000CDE9060103BCF047BDE800504EEC00C490
:102AA000BDE800504EEC01C4BDE800504EEC02C43D
:102AB00000BD000000B5FFF7DFFF02E010FE30F4BC
:102AC000F8D441EC100443EC112400EE010410EEA4
:102AD000010480EE200451EC1004704700B5FFF7AC
:102AE000CBFF02E010FE30F4F8D441EC100443ECCC
:102AF000112400EE010410EE210480EE200451ECBC
:102B00003004704700B5FFF7B7FF02E010FE30F465
:102B1000F8D410B541EC100443EC112451EC04043A
:102B200053EC0524A0FB024C5FF0000EE0FB03CE4B
:102B3000E1FB02CE4CEC20440024E1FB03E444EC36
:102B400030E480EE200451EC5004BDE810407047A2
:102B500000B5FFF791FF02E010FE30F4F8D441EC2D
:102B6000100443EC112451EC2104A0FB01126FEA84
:102B7000820252FB100052FB12F252FB1000A0EB3B
:102B8000D07C53EC04245CFB13F153EC1524A1FB23
:102B9000022001FB030053EC4424A2EB000050FB95
:102BA0001CF24FEA111312EB017043EBE27140EAA1
:102BB000515020EA915020F0070053EC7524A0FBFF
:102BC000023C53EC752400FB03CC01FB02CC53EC1C
:102BD0000424ACEB824C40EA5C70A0F1010041ECB3
:102BE000400480EE200451EC7004704700B5FFF7FC
:102BF00043FF02E010FE30F4F8D440EC700400EE25
:102C0000010410EE210480EE200451EC30047047E2
:102C100000B5FFF731FF02E010FE30F4F8D440ECCD
:102C2000600400EE010410EE210480EE200451EC5B
:102C30003004704700B5FFF71FFF02E010FE30F4CC
:102C4000F8D441EC800400EE010410EE010480EEA3
:102C5000400410EE1304704700B5FFF70DFF02E0CB
:102C600010FE30F4F8D441EC800400EE010410EEC4
:102C7000010480EE400410EE3304704700B5FFF706
:102C8000FBFE02E010FE30F4F8D441EC100443ECFB
:102C9000112400EE010410EE3004C0F30070704700
:102CA00000B5FFF7E9FE02E010FE30F4F8D443EC83
:102CB000102441EC110400EE010410EE30F48CBF3E
:102CC00001200020704700BF00B5FFF7D5FE02E0ED
:102CD00010FE30F4F8D443EC102441EC110400EE63
:102CE000010410EE30F42CBF01200020704700BF1B
:102CF00000B5FFF7C1FE02E010FE30F4F8D441EC5D
:102D0000100443EC112400EE010410EE30F42CBF4B
:102D100001200020704700BF00B5FFF7ADFE02E0C4
:102D200010FE30F4F8D441EC100443EC112400EE12
:102D3000010410EE30F48CBF01200020704700BF6A
:102D400008B528B103460B44034A934200D808BD96
:102D50000248FEF7D5FB00BF00000820488600109F
:102D600038B5054604F0D8FB04462946FFF7E8FFCE
:102D7000204638BD9A4200D288547047704720B12F
:102D800008B50A684968904708BD704701460020A9
:102D900008E000EB8000531C0B60137803EB40034A
:102DA000A3F130000A681378303BDBB2092BF0D96D
:102DB00070472DE9F04F83B005460E4693461F46F7
:102DC000DDF830A00D9CDDF838900F9B13F0030F59
:102DD00019D1A046019208E002F1010B3B463146B1
:102DE0002020A84708F101085A46C845F4D3DDF869
:102DF00004B008E0013C02F101083B4631461AF8F4
:102E00000400A8474246002CF4D10F9B13F0020F98
:102E100009D1104603B0BDE8F08F541C3B46314643
:102E20002020A8472246A2EB0B034B45F5D3F0E741
:102E30002DE9F04385B099460C9D0D9C9DF8388096
:102E4000DDF840E0119F129E16F0020F21D17FB1F4
:102E500016F0010F0CD0B8F1000F02D116F00C0FD4
:102E600006D0013F04E04FF0300C05F804C00134F7
:102E7000744501D21F2CF6D916F0010F09D0BC42BF
:102E800007D21F2C05D84FF0300C05F804C00134D0
:102E9000F2E716F0100F14D016F4806F04D11CB1B5
:102EA000744522D0BC4220D00F9B102B33D00F9BF7
:102EB000022B3DD01F2C0ED84FF0300C05F804C06B
:102EC00001341F2C07D8B8F1000F39D04FF02D0C6A
:102ED00005F804C0013403960297019400954B460F
:102EE000FFF767FF05B0BDE8F083B4F1010C1DD01A
:102EF0000F9B102B0ED064460F9B102BD7D116F0D2
:102F0000200FD4D01F2CD2D84FF0580C05F804C095
:102F10000134CFE7023C16F0200FEDD11F2CEBD887
:102F20004FF0780C05F804C00134C3E76446BBE7F2
:102F30001F2CD0D84FF0620C05F804C00134B9E75B
:102F400016F0040F05D04FF02B0C05F804C0013427
:102F5000C1E716F0080FBED04FF0200C05F804C0F2
:102F60000134B8E7F0B591B0169C189D1B9E0CB9C2
:102F700026F0100616F4806E1DD064B34FF0000EDC
:102F800019E016F0200F24D04127BC445FFA8CFCD6
:102F9000ACF10A0C5FFA8CFC0EF101070EF1400E49
:102FA000EE440EF820CCB4FBF5FCAC4214D31F2F3A
:102FB00012D8BE466446B4FBF5FC05FB1C4C5FFA18
:102FC0008CFCBCF1090FDCD80CF1300C5FFA8CFCE6
:102FD000E2E76127D9E7274606961A9C0594199CD3
:102FE000049403959DF85C400294019708AC00940A
:102FF000FFF71EFF11B0F0BD2DE9F04F95B009901D
:103000000A910B929846DDF878B0DDF87C90229D0D
:10301000239F269E5BEA090201D126F0100616F4D2
:10302000806424D05BEA09022FD000241FE016F050
:10303000200F28D041231344DBB20A3BDBB204F15A
:10304000010A04F150020DEB020404F8203C2A4668
:103050003B465846494604F0D7FFAB4579EB070994
:1030600015D3BAF11F0F12D85446834689462A4613
:103070003B465846494604F0C7FFD2B2092AD6D883
:103080003032D3B2DBE76123D5E74FF0000A069672
:10309000259B0593249B049303959DF88030029310
:1030A000CDF804A00CAB009343460B9A0A990998FB
:1030B000FFF7BEFE15B0BDE8F08F00000000000075
:1030C0002DE9F04F93B004460D4617461E46DDE944
:1030D0001CAB52465B4650465946FFF7D3FD0028CD
:1030E00040F0F3804FF0FF32AD4B50465946FFF7AA
:1030F00017FE002840F0E9804FF0FF326FF4801394
:1031000050465946FFF7D0FD002840F0DE800022EF
:10311000002350465946FFF7C7FD002840F0E680DF
:10312000CDE906AB209B13F480630F9301D10623F6
:103130001E93DDE9062310461946CDE90A01079BD7
:1031400052EA030100F0DC80C3F30A50C3F3130317
:10315000904643F07F5949F44019A0F2FF30FFF741
:1031600049FD7DA3D3E90023FFF7D0FC7CA3D3E97D
:103170000023FFF7A3FCCDE908010022894B40465C
:103180004946FFF7AFFC78A3D3E90023FFF7BEFC65
:1031900002460B46DDE90801FFF790FCFFF74EFD04
:1031A0000890FFF727FD8046894671A3D3E90023E5
:1031B000FFF7ACFC00227C4BFFF780FCFFF73EFDE5
:1031C0000A906DA3D3E9002340464946FFF79EFCD1
:1031D000804689460A98FFF70DFD69A3D3E90023CD
:1031E000FFF794FC02460B4640464946FFF77AFC3F
:1031F0008046894602460B46FFF788FCCDE90C0164
:103200000A9B03F2FF3300210022CDE90A121B05BD
:103210000B9300230A9342464B4640464946FFF72C
:103220004DFCCDE9100142464B4600204FF0804155
:10323000FFF758FC8046894600225C4BDDE90C0113
:10324000FFF78AFC00225A4BFFF738FC02460B4678
:10325000DDE90C01FFF780FC0022564BFFF72EFC46
:1032600002460B46DDE90C01FFF776FC02460B46F1
:1032700040464946FFF722FC02460B46DDE91001B5
:10328000FFF76AFC00224C4BFFF718FCDDE90A232C
:10329000FFF73CFC80468946CDE90A89DDE9062333
:1032A000FFF73EFD50B1089B013B08930022404BC5
:1032B00040464946FFF750FCCDE90A01089B6333BD
:1032C000C62B46D84FF004081EE0209B04931F9B9A
:1032D00003931E9B0293CDE900AB33463A46294641
:1032E000204600F0FDF813B0BDE8F08F9FED267B7F
:1032F0008DED067BCDF818A00BF10043079311E785
:10330000002308934FF00408209B13F4006F5FD054
:10331000DDE90A1213460B4313D01DA3D3E90023A2
:10332000DDE90601FFF7E8FC002800F0B4801AA3ED
:10333000D3E90023DDE90601FFF7B6FC002800F021
:10334000AA801E9A089B9A4238DDD31A013B1E932D
:1033500036E04FF00508D7E7FB799F501344D33F81
:10336000B3C8608B288AC63F61436F63A787D23F8B
:1033700071A379094F930A401655B5BBB16B024052
:10338000EF39FAFE422EE63F000000000000000088
:103390002D431CEBE2361A3F0000000080842E41D2
:1033A000FFFFEF7F0000F83F0000E03F00002C40EF
:1033B00000002440000018400000F03F00231E934E
:1033C000209B43F4806320934FF00008CDF82080C9
:1033D0001F9B984569D2A3EB0809209B13F00203B9
:1033E0000C9304D0B8F1000F01D04FF00009089BF6
:1033F0003BB1DDE90A23DDE90601FFF7ADFBCDE9CD
:1034000006010022002350465946FFF74DFC0028D4
:103410004ED1209B23F400630493CDF80C901E9BA7
:1034200002939DED067B8DED007B33463A4629469F
:10343000204600F055F8B8F1000F3FF454AF209B40
:1034400013F0200F3CD04FF0450C00F1010933463A
:10345000024629466046A047089981EAE172A2EB3C
:10346000E1720523059308F1FF33049300230393CE
:103470000A230293CB0F0193009233464A46294612
:103480002046FFF76FFD0C9B002B3FF42CAF02464C
:10349000DDF87C901EE01E9B002B99D00F9B002B2B
:1034A00096D01E9B013B1E9392E74FF0000994E7D4
:1034B000DDE90601024601F10043CDE90623A8E754
:1034C0004FF0650CC1E702F1010833462946202080
:1034D000A0474246D31B4B45F5D3104603E700BF38
:1034E0002DE9F04F2DED028B95B007900A91924691
:1034F0009B46DDE92089229D42464B46404649468F
:10350000FFF7C0FB002835D14FF0FF326FF4801376
:1035100040464946FFF7C8FB00283AD14FF0FF323A
:10352000B14B40464946FFF7FBFB002840D1AAA318
:10353000D3E9002340464946FFF7F2FB00284DD16E
:10354000A7A3D3E9002340464946FFF7ADFB002877
:1035500044D10022002340464946FFF7A5FB00283E
:103560004AD100230B93249B13F4806F00F0B580A5
:10357000002454E0249B0393239B02930323019391
:103580009A4B00935B4652460A990798FFF711FC45
:103590001BE1249B0393239B029304230193944BED
:1035A00000935B4652460A990798FFF702FC0CE12C
:1035B000249B13F0040F0ED08E4B04222499039108
:1035C00023990291019200935B4652460A9907980B
:1035D000FFF7EFFBF9E0884B0322EFE7249B04930E
:1035E000239B03930295CDE900895B4652460A99D5
:1035F0000798FFF765FDE8E042464B4600200021B2
:10360000FFF770FA8046894601230B93ABE704F17C
:1036100050036B44302203F8202C013D01341F2C51
:1036200001D8092DF3D840464946FFF707FB064667
:10363000FFF7E0FA02460B4640464946FFF752FACA
:103640006E4B03EBC50393ED008B53EC182BFFF788
:103650005DFA02460B46CDE90823FFF701FB07465A
:10366000FFF7DAFA02460B46DDE90801FFF73AFAFE
:1036700002460B46CDE908230022614BFFF750FBC1
:1036800068B301373846FFF7C7FA02460B4651ECDC
:10369000180BFFF71DFB08B1013600276DBB304644
:1036A000FFF7A8FA02460B4640464946FFF71AFACA
:1036B000074688460022524BFFF7F6FA00284CD105
:1036C00000224F4B38464146FFF72AFB002844D1E1
:1036D00016F0010F41D001363FE0062548E70022F1
:1036E000474BDDE90801FFF7DFFA0028D6D117B113
:1036F00017F0010FD2D00137D0E71F2C17D8013DAA
:10370000404BA3FB0723DB08194603EB8303A7EB1E
:103710004303621C303304F150000DEB000404F845
:10372000203C092F02D90F461446E6E714461F2C09
:103730000AD86B1E45B104F150026A44302102F8E8
:10374000201C1D460134F2E71F2C06D804F150035B
:103750006B442E2203F8202C01341F2C17D82A4A40
:1037600082FB0632F317C3EBA2031A4603EB830373
:10377000A6EB4303611C303304F150000DEB000451
:1037800004F8203C16460AB10C46E6E70C46249B9A
:1037900003F00303012B39D01F2C09D80B9B002BFE
:1037A00051D004F150036B442D2203F8202C013436
:1037B000249B0393239B029301940CAB00935B46E1
:1037C00052460A990798FFF7F4FA15B0BDEC028B40
:1037D000BDE8F08FAFF300800000000065CDCD4163
:1037E0000000000065CDCDC1FFFFEF7FB086001067
:1037F000B4860010A4860010AC860010409F001014
:103800000000E03FCDCCCCCC67666666239BB3B1AD
:103810000B9B1BB9249B13F00C0F12D0239B013B75
:103820002393194606E004F150036B44302203F859
:10383000202C01348C42AFD21F2CF4D9ACE7239951
:10384000F8E72399F6E7249B13F0040F07D004F15F
:1038500050036B442B2203F8202C0134A8E7249B4F
:1038600013F0080FA4D004F150036B44202203F896
:10387000202C01349CE700BF2DE9F04F8FB080462B
:1038800017460D938946002900F04F83002508E074
:103890006C1C3B462A464946C0470D9B01330D939D
:1038A00025460D9B1878002800F042832528EFD18B
:1038B00001330D9300261FE046F0010601320D9200
:1038C000012318E046F0020601320D92012312E0B6
:1038D00046F0040601320D9201230CE046F0080682
:1038E00001320D92012306E046F0100601320D92DE
:1038F000012300E000234BB30D9A1378203B102BDB
:10390000F8D801A151F823F0DD380010F538001087
:10391000F5380010E9380010F5380010F5380010BF
:10392000F5380010F5380010F5380010F5380010A3
:10393000F5380010D1380010F5380010C5380010E7
:10394000F5380010F5380010B93800100A930D9BB7
:103950001A78A2F13003DBB2092B18D92A2A1BD01E
:103960000A9B0B930D9B1A782E2A25D00D9A13785B
:10397000683B122B5CD8DFE803F0495BAC5B3B5B38
:103980005B5B5B5B5B5B575B5B5B5B5BB1000DA891
:10399000FFF7FCF90B90E5E7189B1A1D18921B68BE
:1039A000002B04DB0B930D9B01330D93DAE746F0FC
:1039B00002065B420B93F6E746F480665A1C0D92B2
:1039C0005A78A2F13003DBB2092B0CD92A2ACDD1C7
:1039D000189B1A1D18921C6824EAE4730A930D9B25
:1039E00001330D93C2E70DA8FFF7D0F90A90BDE7A8
:1039F00046F48071531C0D9353786C2B01D00E4606
:103A000016E046F4407602320D9211E046F0800155
:103A1000531C0D935378682B01D00E4608E046F0F6
:103A2000C00602320D9203E046F4807601320D9218
:103A30000D9B1878672856D82528C0F06C82A0F115
:103A40002503422B00F26782DFE813F05A02650279
:103A5000650265026502650265026502650265022E
:103A6000650265026502650265026502650265021E
:103A7000650265026502650265026502650265020E
:103A800065026502650265026502650288016801DA
:103A900088016502650265026502650265026502CC
:103AA00065026502650265026502650265026502DE
:103AB00065027100650265026502650265026502C4
:103AC0006502650265027100AF017100880168013D
:103AD000880146F4007601320D92A9E746F480761B
:103AE00001320D92A4E7782800F215826928C0F00F
:103AF0001282A0F16902D2B20123934049F241023D
:103B0000134214D113F0800F40F0DF8113F4806F63
:103B100000F00182189B1A1D1892D3F800A00A9B8E
:103B2000002B40F090814FF0FF32534674E16F2834
:103B30003DD005D858283CD0622803D1022304E0A8
:103B4000782838D026F010060A23582835D069285E
:103B500003D0642801D026F00C0616F4806F01D043
:103B600026F0010669282BD0642829D016F4007F9E
:103B700040F0968016F4807F40F0AE8016F0400F43
:103B800000F0BF80189A111D1891127805960B99B4
:103B900004910A99039102930023019300923B46FA
:103BA0002A4649464046FFF7DDF9054629E0082345
:103BB000CBE71023C9E71023C7E746F02006C6E786
:103BC00016F4007F21D116F4807F42D116F0400F09
:103BD00058D0189A111D1891127882EAE271A1EB5F
:103BE000E27105960B9804900A9803900293D20F05
:103BF000019200913B462A4649464046FFF7B2F9FA
:103C000005460D9B01330D934BE6189A073222F0BF
:103C1000070202F10801189151681268084600294C
:103C200013DB08960B9C07940A9C069404930023CC
:103C30000593C90F0291009201903B462A464946DE
:103C40004046FFF7D9F90546DBE7524261EB4100F8
:103C5000E7E7189A111D1891126882EAE271A1EB48
:103C6000E27105960B9804900A9803900293D20F84
:103C7000019200913B462A4649464046FFF772F9B9
:103C80000546BEE716F0800F05D0189A111D189151
:103C9000B2F90020A1E7189A111D189112689CE74B
:103CA000189A073222F0070202F1080118910896CB
:103CB0000B9907910A9906910021049305910291AD
:103CC000D2E90023CDE900233B462A464946404637
:103CD000FFF792F9054694E7189A111D1891059679
:103CE0000B9904910A99039102930023019313689D
:103CF00000933B462A4649464046FFF733F90546BE
:103D00007FE716F0800F04D0189A111D18911288C1
:103D10003CE7189A111D1891126837E746281AD007
:103D2000189B073323F0070303F108021892049647
:103D30000B9A03920A9A0292D3E90023CDE9002359
:103D40003B462A4649464046FFF7CAFB05460D9BBF
:103D500001330D93A5E546F02006E1E7672801D081
:103D6000472801D146F40066452801D0472801D1F3
:103D700046F02006189B073323F0070303F10802DF
:103D8000189204960B9A03920A9A0292D3E900239E
:103D9000CDE900233B462A4649464046FFF790F9C5
:103DA00005460D9B01330D937BE516F002061CD0F2
:103DB00001241898031D189305F1010A3B462A4671
:103DC00049460078C047AEB90D9B01330D93554667
:103DD00067E5551C3B4649462020C04723462A46F6
:103DE0005C1C9A45F5D81546E3E70123DDF82CA0C5
:103DF0002A46F5E75246DDF82CA006E0561C3B4665
:103E000049462020C0472C463246651CA245F5D8BD
:103E10009246D9E701330A46197811B1511E002A9A
:103E2000F8D1A3EB0A0316F4806B03D00A9A9342ED
:103E300028BF134616F0020407D00C940A9E2A46A7
:103E40005D469B4623E00A9A6FE6CDF830B02A46DD
:103E500025460B9C07E002F1010B3B46494620201A
:103E6000C04733465A465E1C9C42F4D8DDF830B059
:103E70002C4633460C940A9E5D469B4607E01E4640
:103E80000AF1010A541C3B464946C04722469AF8AB
:103E9000000020B1002DF3D0731E002EEFD10C9C3A
:103EA00015465B461CB90D9B01330D93F9E40B9E3F
:103EB00006E0551C3B4649462020C04723462A467B
:103EC0005C1C9E42F5D81546EDE746F02106189B8E
:103ED0001A1D18921B680596082204920A9A0392EA
:103EE000102202920022019200933B462A46494644
:103EF0004046FFF737F805460D9B01330D93D0E49C
:103F00006C1C3B462A4649462520C0470D9B013381
:103F10000D932546C5E46C1C3B462A464946C047DE
:103F20000D9B01330D932546BBE4DFF82080ADE403
:103F3000BD4208D37A1E3B4649460020C04728466A
:103F40000FB0BDE8F08F2A46F5E700BF7D2D0010C9
:103F50000EB400B584B0014605AA52F8043B0392A2
:103F600000924FF0FF320448FFF786FC04B05DF882
:103F700004EB03B0704700BF752D001000B585B08D
:103F800002900391009313464FF0FF3202A90348B9
:103F9000FFF772FC05B05DF804FB00BF7F2D001039
:103FA00000BEFDE70346094A126842B1074A10689D
:103FB0000344074A934206D8044A13607047034AF1
:103FC00004491160F2E74FF0FF307047601D002098
:103FD00000000820DC21002008B5FFF7E1FF000009
:103FE00000B583B08C4619465AB11446064B01946D
:103FF000009363460246054800F056F90120FFF79A
:10400000CFFF034B1C46F2E7BC860010CC860010A5
:10401000C886001010B5EFF30583DBB203B100BE14
:10402000FEF72EFC044C02E054F8043B9847034B87
:104030009C42F9D310BD00BF708000107880001042
:1040400008B5034608461B681146984708BD00009E
:10405000F8B507460D461646437D13B100242046A9
:104060000CE003681146284698472EE03B7D10E09F
:104070003B68022115489847601C0134B44214DAA9
:10408000002CF3DD2B1913F8013C0D2B14BF00237A
:1040900001232A5D0A2AF0D1002BEED1A042E7DAF3
:1040A0003B68211A28449847E2E7B04203DA3B68AC
:1040B000311A28449847002E07DD354415F8013C95
:1040C0000D2B14BF002301233B75F8BD909F0010FA
:1040D00038B50368BBB105460B4B1C6806E02946A2
:1040E00051F8042B2046FFF7B3FF24694CB1236835
:1040F000002BFAD0054B1B68002BF0D0A342F4D163
:10410000EDE700232B6038BD501D00205C1D002012
:1041100038B505460C460B68802B05D023685A1C21
:1041200022601C44257138BD0846FFF7D1FFF5E732
:1041300008B5FEF7B3F9074A821841F10003002BD6
:1041400003DB054803F06CFF08BD4FF0FF326FF052
:104150000043F6E740420F002014002008B5024853
:1041600003F056FF08BD00BF201400202DE9F043E6
:1041700083B006460D4690461C46FFF7D9FF8146A0
:10418000B5F1FF3F04D044B1174F184B1C6807E04E
:10419000304603F09FFD0546F5E7154FF5E7246926
:1041A000BCB12368002BFAD0124B1B680BB1A342A1
:1041B000F5D12A4631462046B847B8F1000FEED077
:1041C0000A238DF8073001220DF107012046B84778
:1041D000E5E7B9F1000F03D1284603B0BDE8F0834D
:1041E000FFF7BCFFF8E700BF51400010501D002052
:1041F000414000105C1D0020094A136802E003F1F1
:1042000010021B6943B113688342F8D131B90369C5
:10421000136000230361704701B11060704700BF55
:10422000501D002010B5054B1C6800E0246924B126
:104230006368002BFAD09847F8E710BD501D0020A6
:1042400008B500F0ADF908BD38B5054603F042FDEC
:10425000044601231A4601462846FFF787FFFFF769
:10426000E1FF204638BD0000F0B5A3B004460E467D
:10427000FFF75EFF05460023019301AF3346224658
:1042800039460848FFF77AFE04463846FFF720FF14
:10429000FFF7C8FF15B9204623B0F0BDFFF75EFF5A
:1042A000F9E700BF114100100FB400B583B004A9B5
:1042B00051F8040B0191FFF7D7FF03B05DF804EB51
:1042C00004B0704770470000014B00221A7070471D
:1042D000D52100204B79FF2B0BD18B795BB9CB79A2
:1042E000012B0AD1082A0AD98A78064B1A700920AC
:1042F0007047002070470020704700207047002062
:10430000704700BFD521002001207047012923D12B
:1043100008B59188114B1B78994201D0002008BD47
:104320005378012B03D0022B0FD00020F7E75188E0
:1043300011F4807F06D0480AC1F3402201F07F01CA
:10434000FEF74DFA4FF0FF30F6E7642200210846F1
:10435000FEF7E6F90120E2E701207047D5210020B1
:10436000004870475CA0001001290FD108B59446A1
:104370005378012B0CD19388072B01D0002008E043
:10438000A623044A614601F0EFFB02E001207047DA
:10439000002008BDB49F001001230370004870473F
:1043A000949F001008B50B68B3F5966F00D008BD58
:1043B000002211464FF0FF30FEF711FA024B186051
:1043C000024B1960704700BFD81C0020DC1C002085
:1043D00008B5FEF763F80E4A821841F10003002B7E
:1043E00011DB0C4803F01CFE60B100214FF0FF30E0
:1043F00001F042FA002001F03BFD0028F5D105480C
:1044000003F006FE08BD4FF0FF326FF00043E8E70F
:1044100040420F00B821002038B5184B1B681BB371
:10442000EFF3108272B6D3E8CF0F01210028FAD142
:10443000C3E8401F0028F6D1BFF35F8F0F494A60E1
:1044400000230F4803700968C1E88F3F82F310888A
:10445000002400250B4B1878FDF75EF940B90024C5
:1044600000252046294638BD4FF47A740025F1E72F
:10447000044B1878FDF77AF9F3E700BF8421002098
:10448000D7210020D621002008B5024B1878FDF76F
:104490006DF908BDD621002070B584B006461446DB
:1044A0001D46FDF7FBFF221845EB0103002B0BDB3C
:1044B0009DF82810029109990191089900913046C0
:1044C000FDF736FE04B070BD4FF0FF326FF00043D1
:1044D000EEE7F0B585B005460C4616461F46FDF7DB
:1044E000B3FD9DF828300293019700962A46234693
:1044F000FFF7D2FF05B0F0BD10B582B00021224811
:1045000003F092FD00BB214B1B68DBB1EFF310827F
:1045100072B6D3E8CF0F01210028FAD1C3E8401FBB
:104520000028F6D1BFF35F8F18494A601848037816
:10453000DBB20124047008680021C0E88F1F82F3F9
:104540001088BBB102B010BD00214FF0FF3001F068
:1045500093F9002001F066FC04460B4803F058FD77
:10456000002CEFD00B4B1B68002BEBD00A4A1068D5
:104570009847E7E700940B46084A4FF47A70002109
:10458000FFF7A7FFDEE700BFB8210020842100204D
:10459000D7210020D81C0020DC1C0020194400106A
:1045A00010B582B04FF050431C68FDF74DFDFDF78C
:1045B0002FFEA0422DD1244B1B780021084602F08B
:1045C000F9F8224B1B6853B30120FDF7B5FAC0B2CE
:1045D0001F4C20701F49FDF7E9F801212078FDF7F5
:1045E000BBF80E20FDF7D6F80446E0B10120FDF738
:1045F00009F801461848FDF7FDFA002217490E2078
:10460000FDF704F901211648FFF7F6FD204602B038
:1046100010BD144B144AC6211448FFF7E1FC0B48A7
:10462000FDF7A6FAD0E70C4A00231360536001227D
:1046300000920F4A4FF47A700021FFF74AFFC443FB
:10464000E40F002CE2D0DDE7E0A30010B821002049
:10465000D6210020F9440010842100208944001054
:104660007C0E0020FC8600108CA000100487001037
:104670001944001008B5002001F0BAFB08BD000085
:1046800038B504460D46FFF7F5FF90B3002001F062
:10469000C9FB88B3FDF702FF1A4A821841F10003F3
:1046A000002B16DB184803F0BBFC40B3FFF7E2FF1A
:1046B00018B1002001F0B6FB80B900214FF0FF30A7
:1046C00001F0DAF86FF002040F4803F0A1FC204675
:1046D00038BD4FF0FF326FF00043E3E72A46214632
:1046E000002001F0ABFB04460028EDD16FF002047E
:1046F000EAE76FF00204EAE76FF00204E7E76FF021
:104700000204E4E740420F00B8210020F8B5074654
:104710000D46FDF7C3FE2E4A821841F10003002B1F
:1047200004DB2C4803F07CFC28B9F8BD4FF0FF32C5
:104730006FF00043F5E7FFF79DFF002845D1264BBA
:1047400000200021C3E90001224803F061FCECE7EE
:1047500000214FF0FF3001F08FF8002001F088FBBE
:10476000FFF788FF0028EFD0002001F0FFFBF8B131
:10477000AC42E9DA2E1B002001F0F8FB864200DC97
:1047800030460028E4D002463919002001F0CCFB65
:10479000064600214FF0FF3001F06EF8002001F0D6
:1047A00067FB3444FDF77AFE0B4BC3E90001DFE7FA
:1047B000FDF774FE084A13685268084E9B1942F1CF
:1047C000000283428A41D3D2BEE70024D0E700BF73
:1047D00040420F00B8210020A815002020A10700AA
:1047E0000048704708A1001000487047B4A00010AE
:1047F00010B50446144B1B786BB18CB9134B40F2C7
:1048000009425A80012301335B009BB20F4843F4F5
:104810004073038010BD11210B4800F047F8ECE70E
:10482000052C0ED80A4B53F824000023122BEAD88B
:10483000C25C002AE7D00133044921F81320DBB21F
:10484000F4E70020E6E700BFC0210020101D002093
:104850009CA0001000B58BB045F24730FDF7B0FFCB
:1048600003460122092101A89847042801D1002309
:104870000EE00A4B0A4A2F210A48FFF7B1FBC3F1A9
:104880000F0228326A4412F8241C074AD15401331B
:10489000072BF4DD0BB05DF804FB00BF948700101C
:1048A0003CA100109C870010AC21002008B511B17C
:1048B0008C46002208E0104B104A3B211048FFF7BD
:1048C0008FFB3733835401320CF1FF3393420FD9FE
:1048D0000F2A0DD853080B49CB5CD14301F00101DD
:1048E00089000B4103F00F03092BEADC3033E9E7C1
:1048F0000023835408BD00BFEC8700101CA10010EA
:104900009C870010AC21002030B400F07F05C30963
:104910004FEA450C0CEBD01C244C04EB4C1C8CF8DF
:10492000020083F001008CF8010000208CF80300E5
:10493000ACF818108CF81B20DBB9EA001C491144B4
:1049400003EB4500194A02EB4012916003EB45016D
:10495000164A02EB41129268002111607DB903EB07
:104960004502124B03EB42135960124ADA6030BC25
:104970007047114901EBC501CCF80810E6E753B9BF
:104980006A1ED2000D49114403EB4503074A02EBAE
:1049900043135960EBE7691E094A02EBC10203EBBE
:1049A0004501024B03EB41135A60E0E7641D002010
:1049B0008400105000011050800010500C00105066
:1049C0000800105008B5038B3F3323F03F03C27E2D
:1049D000022A08D008490A68C26013440B60074ADB
:1049E000934202D808BD5B00F4E7054B054A52210B
:1049F0000548FFF7F5FA00BF68210020FF0F1050AF
:104A0000F487001088A100103888001070B500F0FD
:104A10007F054FEA450C0CEBD0130C4C04EB431410
:104A2000FFF772FF05B970BD218B2046FFF7CAFF63
:104A3000E27EE36883F0A04383F4801343EA826359
:104A400043F0004362681360EDE700BF641D00207F
:104A500008B500F07F035B0003EBD010024B03EBC3
:104A6000401000F01BF908BD641D002008B520B9F6
:104A700001210E20FCF770FE08BD034B034A40F2F3
:104A800097110348FFF7ACFAA888001078A100102E
:104A90003888001008B528B9002211468020FFF799
:104AA000D7FF08BD034B044A40F2A1110348FFF7AA
:104AB00097FA00BFA888001068A10010388800107D
:104AC000024B4FF48032DA64704700BF002011506F
:104AD00070B548BB064600F0C1F8174C0C23A3671D
:104AE000FF2216490E20FCF791FE40252A460021A0
:104AF000134803F001F8002229461046FFF786FF0D
:104B0000002229468020FFF781FF03F071FA01257A
:104B100025644FF00053E3640A4BC4F890303046EC
:104B2000FFF7CEFF284670BD074B084A40F26311DD
:104B30000748FFF755FA00BF000011509903002005
:104B4000641D002010D00100A88800109CA1001056
:104B500038880010044B197021B1044B4FF4003217
:104B6000C3F89020704700BFD221002000201150D0
:104B70000B7813F07F0F02D14B78052B00D07047D4
:104B80004B88DBB2014A1360F9E700BF0000115007
:104B9000CA7802F00302012A09D008B50B468988B9
:104BA000C1F30A019878FFF731FF012008BD00200A
:104BB000704708B503F01CFA08BD000010B530B905
:104BC000084611461A46FFF743FF012010BD034B6C
:104BD000034A4FF401710348FFF702FAA888001056
:104BE00058A100103888001008B511F07F0304D1D7
:104BF000CA090ED10220084A90665B0003EBD1136C
:104C00004FF400620021054800EB431003F004FA62
:104C100008BD0120EFE700BF00201150641D0020F7
:104C200008B511F07F0300D108BD5B0003EBD11381
:104C3000044800EB43100022C2706FF4006103F0DF
:104C4000EBF9F1E7641D002004E011F8012B00F8F6
:104C5000012B1A46531E002AF7D1704708B54FF0B2
:104C600080530A4A136002F580521360084B9B6818
:104C700013F0805FFAD04FF480520021054802F013
:104C80003BFF054B09225A6708BD00BF00200240C8
:104C900000000240000010500000115070B50446A2
:104CA0000D461646837EABB9A6820023E38201231C
:104CB000A3762561204603F0A3F920B10B4B4FF4F6
:104CC0000032C3F89020204603F096F950B101233A
:104CD000237770BD81780648FFF7E6FA204603F097
:104CE0007BF9E1E7204603F07FF9F2E7002011505D
:104CF0009889001038B50546002408E0D21A1B4BED
:104D000003EB4213DB68284698470134E4B2184BA2
:104D10001B782246591CA14215DBA342EED9154B44
:104D20001B6813EB4413EDD140F2252212491348BE
:104D3000FFF7BAFA4FF0E023D3F8F03D13F0010F7C
:104D400013D000BE11E00E4C54220021204602F088
:104D5000D3FE4FF0FF336360A360E3602361202242
:104D6000FF2104F1140002F0C7FE38BD70A200104C
:104D7000D1210020201700203CA20010D089001073
:104D8000F018002008B5FFF7B5FF00F043FF08BD9D
:104D900070B505460C461646486900F045FF636944
:104DA000324601212846984770BD00002DE9F04F9A
:104DB00083B08246481EC0B2FFF716FD20B183467D
:104DC00043780193022B11D040F2D63262496348F6
:104DD000FFF76AFA4FF0E023D3F8F03D13F0010F2C
:104DE00000D000BE002003B0BDE8F08FC279C2F34E
:104DF00040105B4B197860F304111970C2F38012F4
:104E0000C9B262F3451119700BF10908BBF8023001
:104E10009B447BE098F8033098F8002090447DE0B4
:104E200040F2F1324C494D48FFF73EFA4FF0E02393
:104E3000D3F8F03D13F0010F00D000BE0020D2E700
:104E4000F31A484A02EB4319D9F810302A46414672
:104E500050469847082801D985421ED20134E4B251
:104E6000414B1B7826465A1CA2424ADBA342E7D993
:104E70003E4B1B6813EB4419E6D140F2FA32364937
:104E80003648FFF711FA4FF0E023D3F8F03D13F066
:104E9000010F00D000BE0020A5E73B464F468146EB
:104EA000012B11D000218B4224D998F802200A440A
:104EB000D2B22B4810440079FF280BD12848024475
:104EC00014710131C9B2EEE73969294A9142E9D139
:104ED000019BE7E740F219421F492048FFF7E4F938
:104EE0004FF0E023D3F8F03D13F0010F00D000BEE7
:104EF000002078E723464A4641461E4801F066FDF9
:104F0000C844194B1B7801339E4212DCD84520D28D
:104F100098F801300B2B3FF47DAF012398F8012066
:104F2000042A7FF47DAFABEB0805ADB200241F4629
:104F300096E74FF4856208490848FFF7B5F94FF046
:104F4000E023D3F8F03D13F0010F00D000BE0020A5
:104F500049E7012047E700BF10A20010D0890010E8
:104F6000F018002070A20010D1210020201700208E
:104F7000E56000100419002070477047002070475A
:104F80000020704738B505460C464B881A0AD8B23F
:104F9000531E0E2B64D8DFE803F0082D4E636359CF
:104FA0002D636363636363632200FFF719FC0246AA
:104FB00028B112232146284600F0D6FD51E040F2E8
:104FC0003A422C492C48FFF76FF94FF0E023D3F811
:104FD000F03D13F0010F00D000BE002041E0FFF7CC
:104FE000BFF9024600283DD043882146284600F0FC
:104FF000BBFD36E0022A09D0FFF7C2FF024698B394
:1050000053882146284600F0AFFD2AE0FFF7ECFB6D
:1050100002460028F4D140F2614216491648FFF7D3
:1050200043F94FF0E023D3F8F03D13F0010F00D027
:1050300000BE002015E0A188FFF7DAFB0246A8B108
:1050400003782146284600F08FFD0AE0FFF796FF1F
:10505000024668B103782146284600F085FD00E04D
:10506000002038BD0020FCE70020FAE70020F8E728
:105070000020F6E7F8A10010D089001070477047B3
:1050800070477047034B5878C0B2003818BF0120F2
:10509000704700BFF0180020024B1878C0F3800062
:1050A000704700BFF0180020024B1878FF3818BF77
:1050B00001207047B00E0020F8B506460D46FFF7F8
:1050C000F3FF0746002854D105B354220021374886
:1050D00002F012FD364B00221A70364C2046FCF7C7
:1050E00047FD354B1C60354C2046FCF78BFD143CCE
:1050F000204602F025F8324B1C60324B23B1324877
:10510000FFF74AF9314B1860002417E04FF4E972B9
:105110002F493048FFF7C8F84FF0E023D3F8F03DAF
:1051200013F0010F25D000BE23E0D21A2A4B03EB67
:1051300042135B687BB198470134E4B2224B1B7881
:105140002246591CA14216DBA342EED91F4B1B6815
:1051500013EB4413EDD14FF4F8721D491D48FFF7CE
:10516000A3F84FF0E023D3F8F03D13F0010F00D087
:1051700000BE3846F8BD194B1E7029463046FFF771
:10518000A7FC074618B13046FFF770FCF1E74FF473
:10519000FC720F490F48FFF787F84FF0E023D3F870
:1051A000F03D13F0010FE4D000BEE2E7F01800205C
:1051B000D3210020E818002044190020A80E002068
:1051C0004819002099430010D12100202017002009
:1051D00060A20010D089001070A20010B00E002054
:1051E00070B51A4B1E788B7813F0700F0ED10C46E9
:1051F000174B9978204601F079FB0546B0B121465E
:105200003046FFF7C5FC0546284670BD40F20B52FC
:1052100010491148FFF748F84FF0E023D3F8F03D6C
:1052200013F0010F00D000BE0025EDE740F20C5254
:1052300008490948FFF738F84FF0E023D3F8F03D6C
:1052400013F0010FE0D000BEDEE700BFB00E00207B
:10525000F0180020C8A10010D08900102DE9F84FE7
:1052600080460C4616461F46DDF82890DDF82CA037
:10527000002526E040F2E7421F492048FFF714F8D6
:105280004FF0E023D3F8F03D13F0010F00D000BE43
:105290004FF0000B5846BDE8F88F4FF49D62164959
:1052A0001648FFF701F84FF0E023D3F8F03D13F074
:1052B000010FEFD000BEEDE78AF8003023781C44E0
:1052C0000135AE4214DD6378052BD3D1E17801F0CE
:1052D0000301B942CED121464046FFF781FF834604
:1052E0000028DAD0A378DA09E6D189F80030E5E7BA
:1052F0004FF0010BCEE700BFD8A10010D0890010FD
:1053000008B501F07F00400000EBD1103030044BB5
:105310001844044B1968043001F0A2FA08BD00BF1C
:10532000F01800204419002008B501F07F0040006B
:1053300000EBD1103030044B1844044B1968043092
:1053400001F0B6FA08BD00BFF01800204419002093
:1053500070B51F48007801F07F051E4C04EB450C2A
:105360000CEBD11C9CF8344014F0010F1FD1CE0976
:10537000184C04EB4504344494F834C04CF0010C50
:1053800084F834C03034FFF719FCF8B9227922F0E0
:1053900001022271227922F0040222714FF0E023EF
:1053A000D3F8F03D13F0010F10D000BE0EE040F234
:1053B000395209490948FEF777FF4FF0E023D3F847
:1053C000F03D13F0010F00D000BE002070BD00BF03
:1053D000B00E0020F0180020B8A10010D0890010F5
:1053E00038B501F07F05CC090A4B1878FFF7FCFBB4
:1053F000094B03EB4503234493F8342042F00202A7
:1054000083F8342093F8342042F0010283F83420EA
:1054100038BD00BFB00E0020F018002038B501F0F4
:105420007F05CC090A4B1878FFF7FAFB094B03EB11
:105430004503234493F8342022F0020283F83420F9
:1054400093F8342022F0010283F8342038BD00BFE5
:10545000B00E0020F018002001F07F02044B03EB97
:10546000420303EBD11191F83400C0F340007047C0
:10547000F01800202DE9F04182B006460C460020CD
:1054800000F0D2FB237803F06003602B21D0402B87
:1054900032D0227802F01F02012A00F00181022A94
:1054A00000F04281002A40F0C981202B2ED0002B31
:1054B0004DD16378092B00F2E880DFE813F0D300C8
:1054C000C300E600B300E6005200AD00E600610054
:1054D0006E004FF43572B249B248FEF7E5FE4FF068
:1054E000E023D3F8F03D13F0010F00D000BE0025FB
:1054F000284602B0BDE8F081AB4800F095FB22469B
:1055000001213046FEF730FF0546F1E7A388DBB204
:105510000F2B00F29D81A54A13441B79A44A1278EF
:10552000934206D2A34A116811EB431109D1002519
:10553000DEE7511C9942C0F28D819B1A9E4901EB16
:10554000431122463046FFF723FC0546D0E74FF0D3
:10555000E023D3F8F03D13F0010F00D000BE00258A
:10556000C6E7204600F066FB6188C9B23046FFF707
:1055700091FA8E4A137843F0020313700125B7E7BE
:105580008A4B5B788DF8063001230DF10602214627
:10559000304600F0E9FA0125AAE76588EDB2834BB1
:1055A0005B78AB4232D0814B5B785BB97F4B5D70EF
:1055B00055B329463046FFF7F9FB054690B1FFF792
:1055C0005DFD23E000213046FFF7C4FA3046FFF7C7
:1055D000F0FA764F97F802803046FFF78BFB87F89A
:1055E0000280E3E74FF449726D496E48FEF75CFEB6
:1055F0004FF0E023D3F8F03D13F0010F00D000BED0
:105600006A4B00225A7073E7FFF739FD2146304696
:1056100000F096FA01256BE721463046FFF7B2FC11
:10562000054665E76388012B01D0002560E75F4AE6
:10563000137843F0080313702146304600F080FAD7
:10564000012555E76388012B01D0002550E7574A13
:10565000137823F0080313702146304600F070FAE7
:10566000012545E7514B1A78930803F00203C2F372
:1056700040121343ADF8063002230DF10602214615
:10568000304600F071FA012532E74FF0E023D3F8FD
:10569000F03D13F0010F00F0DF8000BE002527E78A
:1056A000A388DBB20F2B00F2D980404A13441B7948
:1056B0003F4A1278934222D23E4A116811EB4311BD
:1056C00000F0CE8022463046FFF762FB05460028F8
:1056D0007FF40EAF237813F0600F7FF409AF637887
:1056E0000A3B012B3FF604AF00F09EFA63780A2BC9
:1056F0000ED02146304600F023FA0125F8E6511C71
:105700009942C0F2AF809B1A2B4901EB4311D9E7B4
:1057100000238DF8063001230DF1060221463046A4
:1057200000F022FA0125E3E6A288D1B202F07F055B
:10573000C2F3C01012F0700F17D11C4A02EB4502E1
:105740000244127D1A48007882421ED21948056828
:1057500005EB421593B3002D00F0868022462946C2
:105760003046FFF715FB0546C2E640F295320C497C
:105770000C48FEF799FD4FF0E023D3F8F03D13F00D
:10578000010F00D000BE0025B2E6451C954204DBA7
:10579000121A094D05EB4215DCE70025DAE700BFD8
:1057A00024A20010D089001069430010F0180020D6
:1057B000D12100202017002070A200106378012B57
:1057C00010D0032B0ED07BBB3046FFF745FEADF863
:1057D000060002230DF106022146304600F0C4F90E
:1057E000012585E6628822B9012B19D03046FFF7E2
:1057F000F7FD002D3AD0224629463046FFF7C8FA79
:10580000002000F011FA1B4B93F8355015F00105FC
:105810007FF46EAE2146304600F092F9012567E62E
:105820003046FFF7FBFDE4E74FF0E023D3F8F03D0F
:1058300013F0010F00D000BE002559E64FF0E02321
:10584000D3F8F03D13F0010F12D000BE00254FE653
:1058500000254DE600254BE6002549E6002547E6F4
:10586000002545E6002543E6002541E601253FE603
:1058700000253DE6F018002010B584B0FFF714FCB9
:1058800048B904B010BD9DF80400FFF77BFA9DF8FD
:105890000820854B9A70854B1C686369EFF3108272
:1058A00072B6D3E8CF0F01210028FAD1C3E8401F18
:1058B0000028F6D1BFF35F8FA26101A9204601F055
:1058C000E7FB6169A3690022C1E88F2F83F3108889
:1058D0000028D6D09DF80530013B072B00F2DA8076
:1058E00001A252F823F000BF875800100959001098
:1058F000815A0010475A0010615A001017590010C1
:10590000AD590010735A00109DF80400FFF73AFAE1
:10591000FFF7B5FBBFE7664B1B78002B36D0644A18
:105920001378013BDBB213701378002BB3D15E4BBD
:105930001A7842F001021A7093F8342022F0010222
:1059400083F8342093F8342022F0040283F83420C2
:1059500093F8352022F0010283F8352093F83520A2
:1059600022F0040283F8352002A99DF80400FFF715
:1059700081FD00288FD100219DF80400FFF734F944
:1059800080219DF80400FFF72FF984E740F265229B
:1059900048494948FEF788FC4FF0E023D3F8F03D32
:1059A00013F0010F3FF46DAF00BE6AE79DF80810D9
:1059B00001F07F00CC093C4B03EB400303EBD11318
:1059C00093F8342022F0010283F8342093F8342035
:1059D00022F0040283F83420A8B1334B03EB4003D8
:1059E00023441B7D354A1278934214D2344A1268FC
:1059F00012EB431317D09C69039B9DF809209DF877
:105A00000400A04747E7039B9DF809209DF8040088
:105A100000F01EF93FE7501C984204DB9B1A294A0C
:105A200002EB4313E7E74FF4247222492248FEF7C2
:105A30003BFC4FF0E023D3F8F03D13F0010F3FF4AF
:105A400020AF00BE1DE7184B1B7813F0010F3FF489
:105A500022AF154B1878C0F3C000FFF711FB1AE70F
:105A6000114B1B7813F0010F3FF415AFFFF709FB43
:105A700011E7029B002B3FF40EAF039898470AE70B
:105A8000094BDB7813F0010F3FF405AF0298FFF7E5
:105A900074FA00E74FF0E023D3F8F03D13F0010F64
:105AA0003FF4F9AE00BEF6E6F018002048190020D9
:105AB000D321002050A20010D0890010D121002055
:105AC0002017002070A2001008B591F90030002BBB
:105AD00005DB802100231A46FFF73AFC08BD0021B0
